:020000022000DC
:1060000000000120756302005D6302005F6302000F
:106010006163020063630200656302000000000028
:1060200000000000000000000000000067630200A4
:1060300069630200000000006B6302006D630200F0
:10604000498802006F630200A98C02006F6302009E
:106050006F6302006F630200598B02006F630200DE
:106060006F6302006F6302006F6302006F630200E0
:106070006F6302006F6302006F6302006F630200D0
:106080006F6302009D7802006F6302006F6302007D
:106090006F6302006F63020029B802006F630200A1
:1060A0006F6302006F6302006F6302006F630200A0
:1060B0006F6302006F630200000000000000000038
:1060C0006F6302006F6302006F6302006F63020080
:1060D0006F6302006F6302006F6302000000000044
:1060E00000000000000000000000000000000000B0
:1060F00000000000000000000000000000000000A0
:10610000000000000000000000000000000000008F
:10611000000000000000000000000000000000007F
:10612000000000000000000000000000000000006F
:10613000000000000000000000000000000000005F
:10614000000000000000000000000000000000004F
:10615000000000000000000000000000000000003F
:10616000000000000000000000000000000000002F
:10617000000000000000000000000000000000001F
:10618000000000000000000000000000000000000F
:1061900000000000000000000000000000000000FF
:1061A00000000000000000000000000000000000EF
:1061B00000000000000000000000000000000000DF
:1061C00000000000000000000000000000000000CF
:1061D00000000000000000000000000000000000BF
:1061E00000000000000000000000000000000000AF
:1061F000000000000000000000000000000000009F
:10620000354936480A1A02D0072291438D4634494F
:1062100034480A1A06D00722914381F309880222E2
:1062200082F3148830483149314A00F044F831484B
:106230003149324A00F03FF831483249324A00F0E1
:106240003AF832483249334A00F035F83248334997
:10625000334A00F030F833483349344A00F02BF821
:1062600033483449344A00F026F83448344900228F
:1062700000F02CF833483449002200F027F8334866
:106280003349091A082902DB002202604160314AC1
:1062900090471F481F49884205D00268043003B464
:1062A000904703BCF7E700208646EC46002000211B
:1062B000294A9047FEE7884207D0521A05D0037852
:1062C00001300B700131013AF9D17047884202D098
:1062D00002700130FAE770470000012000E0002062
:1062E0000000012000000120DCD40200D82A002098
:1062F000402B0020D0630200D063020028C50200BA
:10630000DCD40200D82A0020D82A00202CC60200A3
:106310002CC602002CC602002CC602002CC60200AD
:106320002CC602002CC602002CC60200DBD40200E0
:1063300044D50200402B0020402B0020402B0020A1
:106340004C3E00204C3E00204C3E00204C3E0020A5
:106350004C5E00209D630200A19E0200FEE7FEE766
:10636000FEE7FEE7FEE7FEE7FEE7FEE7FEE7FEE705
:1063700000F002B8FFF7FCBF0F484FF00701884359
:1063800085460E4880470E48016841F4700101605F
:10639000BFF34F8FBFF36F8FFFF732BF09480A4932
:1063A0000A4A884207D0521A05D0037801300B7090
:1063B0000131013AF9D17047000001200182020049
:1063C00088ED00E02CC60200D82A0020D82A002040
:1063D0007047000007B5044B0093044A402300F0C7
:1063E00032F803B05DF804FBF1630200412B00209A
:1063F0002DE9F84388461446B2B10F4B0F4E0325E2
:10640000002743F00109224608EB0701002003F0B2
:10641000DFFE0744241A48B933782BB14FF47A4091
:10642000C847013D02D13570BDE8F88301233370C0
:10643000002CE8D1F8E700BF30C60200402B002056
:10644000704703F0F9BEF0B595B01D4616460846F4
:106450000C4601F0D5FD1A9B0D93CDE9086500258A
:106460002B46082205A920460A958DF82C500C953C
:1064700001F0E3FD079B0293069B03939DF8143004
:106480008DF8115003F00302012A1DD1BDF814202C
:10649000059DC3F3C203C2F383168DF81030B2001A
:1064A00008230EA9204601F0C8FDC5F3952508ABC9
:1064B0000093324602AB0EA9284600F027FB204687
:1064C00001F0A2FD15B0F0BD022AF8D1BDF81650BA
:1064D000C3F3C203C5F389158DF810300827082DC2
:1064E0002E4628BF08263B4632460EA9204601F01C
:1064F000A4FDAD1B08AB02AA31460EA8374400F03C
:1065000069FB002DEBD1DAE708B5FFF79AFF0448E5
:10651000042100F065FA034B01225A7108BD00BF47
:106520001CC60200D82A0020037813F0040216D0FB
:1065300003F00303012B03D0022B09D00120704785
:106540000A6800880232C0F3831002440A60F5E74B
:106550000B684288023303EB92130B60EEE71046A0
:10656000704700002DE9F04F87B000230446861CD9
:106570000DF107000F4615468DF8073001F020F8A1
:10658000404A51683960936803F580735B1A9246FC
:1065900002F21C4702F5836902F21448B3421AD38F
:1065A0000020002D69D004F00F039B0143F0050388
:1065B00063F30F00DAF80430DAB203321E444AF80B
:1065C00022009DF80700CAF8046001F01DF80120C0
:1065D00007B0BDE8F08F0121384601F03CFA48468B
:1065E00001F051FA404601F04EFADAF80800029044
:1065F000C0B203300AEB800002A9FFF795FF029BAF
:1066000030BBDAB20AEB8202D16803919A1C0133E3
:10661000DBB20AEB83030292D3F80CB001F0030360
:10662000012B22D0022B15D08346404601F02EFAD2
:1066300010B1029BCAF808305946384601F00BFAEF
:10664000DAF80830DAF8042003F580739B1AA5E71E
:10665000D8B2CEE7BDF80E30C3F3891303334FEA47
:106660001B4B02EB93030293DFE7BDF80C30C3F33F
:1066700083134FEA1B4B1344F5E7A40544F00600CF
:1066800098E700BF542C0020064B074810B50022A5
:106690001A7001F06EFC044610B9044801F016FDB2
:1066A000204610BD542C002088C502006CC6020094
:1066B00030B50A4C71B10A4A0A49121BD2080023AC
:1066C0009A4201D1002030BD31F82350854202D0DA
:1066D0000133F5E7034654F83300F4E79CC50200A4
:1066E0001CC60200D82A0020094B013903EBC00068
:1066F000032909D8DFE801F00A02040604207047E4
:106700000079704740797047002070470220704739
:106710009CC50200034BD3E90130C31A58425841CB
:10672000704700BF542C00202DE9F04186B0FFF7E0
:10673000F1FF0546002840F0E680744CC4F81804C8
:10674000BFF34F8FA3680293DBB2033304EB8300E4
:1067500002A9FFF7E9FE029B18B1D4F81824002A19
:1067600055D0DAB2991C013304EB8202DBB204EBA0
:106770008303D268DB68049302F00303022B0392C5
:1067800002914FD1BDF80E306148C3F38917502FE5
:106790003E4628BF502666F38F1306F10801ADF878
:1067A0000E3001F0FEFB0546002800F0978001F056
:1067B00027FC002303A90822284601F034FC029993
:1067C000CB43DBB20133C9B20331B6EB830F4FEADF
:1067D000830804EB810122D908234246A6EB080670
:1067E000284601F020FCF6B24A4908F10803324677
:1067F000284601F018FC029B033703EB970702972A
:10680000D4F81834002B41D1D4F8106451E06268F8
:106810009A4299D8A260284606B0BDE8F0810823C4
:106820003246E5E7012B59D1BDF80C303848C3F3A7
:106830008311062928BF062161F3891302318900DB
:10684000ADF80C3001F0ADFB0546002846D001F054
:10685000D7FB0023082203A9284601F0E4FB002609
:10686000BDF80C20C2F38312B300964203F1080373
:10687000C6D202994A1CC9B20331029204EB8101CB
:106880000422284601F0CFFB0136E9E7284601F053
:10689000BBFBFFF73FFF80F00100C5B2BBE7F36829
:1068A0005B7923B1336829461B6830469847F36803
:1068B0001E68002EF3D1284601F0A6FB0DF107005B
:1068C0008DF8076000F07CFED4F818340BB9029BF9
:1068D000A3609DF8070000F097FEDAE7D4F81044B3
:1068E00054B90D4B0D480E49C01AC008000440F0C1
:1068F000020000F05DF8CCE7236820469B689847CB
:10690000E3681C68ECE7002585E700BF542C0020F5
:1069100088C50200602C00209CC50200C4C502008E
:1069200054C602002DE9F34704460E46924601A9DB
:10693000012218469946FFF715FE1B4F10B3019D23
:106940004FF00008AA1CC84508EB020123D11748E4
:10695000002101F051F880F31000000440EA1440D7
:10696000E4006B1C04F03804DBB2EDB244F0010427
:1069700007EB8303033544EA881444EA8624D8608D
:1069800047F825403B781BB1FFF7CEFE0028FBD12E
:1069900002B0BDE8F087C9B207EB81015AF8283090
:1069A000CB6008F10108CEE7542C002070300020A5
:1069B00000231A46FFF7B6BF07B50123019201AACB
:1069C000FFF7B0FF03B05DF804FB07B5CDE9002386
:1069D00002236A46FFF7A6FF03B05DF804FB000040
:1069E00030B50F49D1F8102403460020144634B9BD
:1069F000DC6820714AB9C1F81034226030BDE46807
:106A00002579854206D02468F1E7D26811682160B3
:106A10001360F3E701300A28E8D14FF0FF30EDE7CB
:106A2000542C0020084A38B50123D2F810441370C2
:106A30001D4604B938BDE3685D71236820465B6874
:106A40009847E3681C68F4E7542C002007B5034618
:106A50000846197A052911D05B7A2BB1094A0A49EF
:106A6000019001F076F801980849019001F071F861
:106A7000019803B05DF804EB01F060B8002AF8D08B
:106A8000F2E700BF78C602007DC60200E6CD020034
:106A900030B5C38885B004460D4633B1144A009220
:106AA0001449154A284601F054F8217A05291DD0C9
:106AB000637A4BB1A088FFF717FE104B104953F8CB
:106AC0002020284601F045F8227A0E4BA08853F882
:106AD000222003920021FFF7EBFD039A0A490346A7
:106AE000284605B0BDE8304001F033B805B030BDF0
:106AF00078C6020088C6020080C6020004C70200F1
:106B00007DC6020028C70200A0C602002DE9F0439E
:106B100085B01F460C9D002395F80C902B730646FC
:106B20000C46904629463846FFF7B2FFB8F1060FEB
:106B300009D8DFE808F00412181F28334000314656
:106B4000284601F006F8002229463846FFF77EFF66
:106B500085F80C9005B0BDE8F083226831462846E0
:106B600000F0F7FFEFE7D4E900233146284600F0B4
:106B7000F0FFE8E7A36800933146D4E900232846F4
:106B800000F0E7FFDFE7E3680193A3680093314675
:106B9000D4E90023284600F0DCFFD4E72369029300
:106BA000E3680193A36800933146D4E900232846A3
:106BB00000F0CFFFC7E76369039323690293E3689B
:106BC0000193A36800933146D4E90023284600F0DE
:106BD000C0FFB8E708292DE9F74F80460E46174653
:106BE0001C463CD8002593F80C901D73194610469E
:106BF000FFF74EFFDFF888A0DFF888B0AE4231D94A
:106C000018F805205946204600F0A3FF0135082D4D
:106C1000F4D11949194DDFF870A0204600F099FF12
:106C20004FF0000B5E4522D918F80B207E2A05D8BC
:106C30001046019205F05EF8019A00B92E225146E5
:106C4000204600F086FF0BF1010BBBF1080FE9D1E4
:106C5000012221463846FFF7F9FE84F80C9003B074
:106C6000BDE8F08F5146204600F073FFCEE729467D
:106C7000204600F06EFFE6E7B4C60200B2C602008E
:106C8000B0C60200AAC60200B6C60200C30710B50D
:106C900007D4F023054A4008145C234019431154DB
:106CA00010BD0901C9B20F23F4E700BF4031002035
:106CB00030B5094B1C78094B196800239C4202DC53
:106CC0000022104630BD11F83350854201EBC3025B
:106CD000F7D00133F2E700BF0C3100205031002023
:106CE00013B504460191FFF7E3FF38B143682BB1B8
:106CF0000199204602B0BDE81040184702B010BD0F
:106D0000034B044819680022490800F05CBA00BF30
:106D1000103100201831002010B5C0B2FFF7C8FFB5
:106D20000446007801F00EFF63785A1E5342534127
:106D3000834208D1044BD3E90023134303D1BDE8B8
:106D40001040FFF7DDBF10BD3831002037B54308D4
:106D5000354AD35CC2074CBF1B0903F00F0304463E
:106D60000D46042B35D8DFE803F003252C383C0012
:106D700079B30121FFF78AFF00230DF107008DF899
:106D8000073000F01DFC0120A4F12003C4F1200114
:106D9000264A20FA01F100FA03F30B43A040D2E99E
:106DA000004120430B43C2E900039DF8070000F0B7
:106DB0002BFC0EE0002918BF02212046FFF766FFDA
:106DC00007E041B10321FFF761FF01212046FFF7F2
:106DD00087FF03B030BD0121EFE70029F9D104217D
:106DE000EBE709B10321E8E7FFF750FF294620460A
:106DF000FFF776FF0DF107008DF8075000F0E0FB7C
:106E00000120A4F12003C4F12001084A20FA01F175
:106E100000FA03F30B43A040D2E9004124EA00004A
:106E200021EA0303BFE700BF4031002038310020D2
:106E30002DE9F041124E134F00243378A34208DCB1
:106E4000114BD3E90023134318D0BDE8F041FFF7FD
:106E500057BF3D6805EBC40815F8340001F072FE19
:106E600098F801305A1E53425341181A4142414189
:106E700015F83400FFF76AFF0134DEE7BDE8F08162
:106E80000C3100205031002038310020092AF7B59C
:106E900005460C4616463CD901F094FDD8B11E4B70
:106EA0001E481D601E4B1F4F1C701F4B00211022DF
:106EB0001E6004F07FFF1D4B00200021C3E900018C
:106EC000013CE4B20326FF2C0BD1194A19480021DA
:106ED00000F06EF903E001F037FD0028DFD003B0C9
:106EE000F0BD9DF8063015F834008DF8046005EB10
:106EF000C40223F007038DF8063001A993788DF8BA
:106F000005303A4601F068FD013CE4B20028DAD0D1
:106F1000E5E70720E3E700BF5031002040310020C3
:106F20000C310020196D0200103100203831002092
:106F3000316E020048C7020070B5084D084E0024AB
:106F40002B789C4201D3002070BD3368012113F8D7
:106F5000340001F0B3FD0134F2E700BF0C31002032
:106F6000503100201FB50021039001AA44F2010016
:106F7000CDE9011100F004F805B05DF804FB000054
:106F800010B572B6FFF74EFDFFF7CEFB0028FBD120
:106F9000104B114C1149E41AE408240444F0010098
:106FA000FFF706FD0E4B1B68DB0700D500BE0D4941
:106FB00044F00200FFF7FCFCBFF34F8F0A490B4B74
:106FC000CA6802F4E0621343CB60BFF34F8F00BF87
:106FD000FDE700BF9CC50200C4C502004CC702000B
:106FE000F0ED00E058C7020000ED00E00400FA05F3
:106FF00049B152B1531E1A4007D1826001608380AB
:10700000C260104670470E2070470920704710B5C7
:107010008468C2688388121B934208D3C2681340F5
:107020000268D154C3680133C360002010BD04203E
:10703000FCE78268C3689A420AD08268838813405A
:107040000268D35C0B708368013383600020704753
:1070500005207047D0E90223D1E90201994208BF17
:1070600090422CBF012000207047000008B50B485B
:1070700000F0FDFB0A4B0B49D3E900231218D1E9BC
:10708000000143F100038B4208BF824203D212F198
:10709000807243F100031046194608BDE02A002023
:1070A00058310020D031002037B505460C460A483B
:1070B00001A900F010FC60B10570446001A9064808
:1070C00000F033FC18B1054800F0D6FB002003B0F7
:1070D00030BD0420FBE700BFBC310020E02A0020C7
:1070E00038B5184B1B78044613B90025284638BD1F
:1070F0000028FAD0037F03F0FF05002BF5D0FFF73F
:10710000B5FFD4E90223994208BF904214D3236902
:1071100003B92377D4E90530984721690029E4D0E1
:10712000237F03F0FF05002BDFD0D4E902235218A0
:1071300043F10003C4E902230348214600F0E5FFC0
:10714000D4E700BF6031002074C7020013B5114BB3
:1071500011491868019008231048582200F0A8FB34
:10716000044698B90E4A0F4801A900F071FA044686
:1071700060B90C48012100F05DFB01230A4A09486F
:10718000194600F0BFFA094B01221A70204602B0DE
:1071900010BD00BF70C7020064310020BC31002068
:1071A00011720200E02A0020FFFF7F006031002002
:1071B0003AB103685A614A1E514251411961002097
:1071C00070470720704738B5037F04460D4683B9E2
:1071D0008261FFF74BFF2369401941F10001C4E9C7
:1071E000020103B1256121460020BDE83840FFF7C8
:1071F0005BBF002038BD0023014603770120FFF765
:1072000053BF0000014800F032BB00BFE02A00205D
:107210002DE9F04F85B0804600F014FB40B15A4A8A
:10722000D2E9003113F1807341F10001C2E900316C
:107230000021404600F015FB38B1544E336823B1AD
:107240003068FFF74DFF002333600121404600F016
:1072500008FB20B1FFF70AFF4D4BC3E900014D4881
:107260004A4F4D4EDFF8389103A900F06EFB00281D
:1072700045D1DFF82491454EDFF828A1484600F0BB
:107280005AFF3368002875D07BB13368D0E902011A
:10729000D3E90223994208BF90422DD233681B7F65
:1072A0001BB13168484600F030FF484600F03DFF12
:1072B000D0E902B307460193FFF7D8FE019BBBEB71
:1072C000000463EB0105012C75F1000345DBB4F507
:1072D000350F40D3FFF796FF304A02444FF4960330
:1072E0000021504600F02EFA00283ED1336813B931
:1072F000404600F0FFF9376005B0BDE8F08F037835
:10730000012B1DD0022B09D14FF0000A304600F0AE
:107310000CFF002834D080F81CA0F7E73BB9416887
:107320000B7F23B901230B77304600F0EEFE03A953
:10733000184800F035FB03A9164800F006FB96E755
:1073400041683B68994202D100233B60EFE7304639
:1073500000F0F4FEEBE7BA68C0E70021504600F009
:1073600076FA3846FFF7BCFE01E00D28F9D000237D
:10737000336083E7002BBFD1404600F0BFF9BBE785
:10738000012389F80030D2E758310020D83100209D
:10739000D0310020BC31002074C70200FFFFB400D0
:1073A00060310020E02A00200648074A0378074998
:1073B000D35C012213B1043002F0C6B80C3001F0E6
:1073C0008FBE00BFE82A00204C320020043200208B
:1073D0000648074A03780749D35C012213B10430F9
:1073E00002F05EB80C3001F029BE00BFE82A002090
:1073F0004C3200200532002037B50578012D0BD026
:10740000022D2ED065B91E491E48FFF712FE002836
:1074100032D1FFF7DDFF03E0037A1BB9FFF7C4FFAA
:1074200003B030BD4368184C19782046FFF7EFFDD4
:1074300080B18DF800500190144B68461B68984746
:10744000A168E368A2885B1A9A42E7D2104B012236
:107450001A70E5E7A268E3689A42F1D08DF800005F
:10746000EAE7C3688DF800500193FFF79DFF074BD3
:1074700068461B689847D3E703238DF80030F6E78A
:1074800005320020F4310020E0310020DC31002002
:10749000F0310020F0B51F46234B89B004461A6036
:1074A0000D4600293DD08A8820480968FFF7A0FDD5
:1074B000002834D1AA89A9681D48FFF799FD002842
:1074C0002DD11C4E0FCE6D460FC596E80F0085E8F6
:1074D0000F0063690693237C174A18488DF81C70C7
:1074E000003B18BF01238DF81430637C002B14BFC0
:1074F0000E2300238DF81530E3680293A3680393ED
:107500002368019369466368009301F021F930B95B
:107510000B4B18702368013301D0FFF745FF09B00A
:10752000F0BD0720FBE700BFDC310020E031002088
:10753000F431002080C70200F9730200E82A00201D
:10754000F031002070B5084D014608482E78FFF74D
:1075500070FD044636B100232B70FFF725FF08B1FC
:10756000FFF700FD204670BDF0310020E031002023
:1075700010B501460E48FFF74AFD0446A8B90D486C
:107580000D4A0378D35C63B1043001F0D1FF60B9D8
:107590000A490748FFF74DFD38B9BDE81040FFF72D
:1075A00017BF0C3001F090FDF1E7204610BD00BF81
:1075B000F4310020E82A00204C320020053200205F
:1075C00070B5EFF3108672B60C4A946801239CB92B
:1075D00093600B4B0B4DD3F8801029401160C3F81A
:1075E0008050D3F8841051604FF0FF32C3F88420EC
:1075F000047006B962B670BD0370FAE70832002065
:1076000000E100E0FC06FFBD084B9A6810B55AB1D6
:1076100050B9EFF3108172B6054A1C6814605C68BB
:107620005460986001B962B610BD00BF08320020F6
:1076300000E100E0435882B03BB10023435043587F
:107640000193019B012002B070471846FBE7000040
:10765000F8B5204B4479204D43F824201F4A204B95
:1076600005EBC4049B1A2279DB081B0432B143F0FA
:1076700002001C49FFF79CF90820F8BD02680C883D
:10768000C2F8084590F904608A7804795201002E06
:10769000D2B219DB14498F1987F800230122760929
:1076A00004F01F0402FA04F441F82640427905EB85
:1076B000C201012445F832000C7143F003000B496C
:1076C000FFF776F90020D8E7094904F00F040A55BE
:1076D000ECE700BF1C320020143200209CC50200E1
:1076E000D4C50200A0C7020000E100E0C2C702004A
:1076F00014ED00E0036801221A607047036801225C
:107700005A60704773B501F15005AD000068ADB225
:107710004FF480348C400026C0F80843C0F848433A
:10772000465101F5A8714559019522F07F42019D0E
:1077300040F82120C0F844430BB1C0F8044302B024
:1077400070BD00002DE9F74F0D4622F07F4402681E
:107750004FF4803705F150068F408046B60002EBAB
:107760008500C2F84873B6B2C2F80873D2F804159F
:1077700099464FF0000BD0F84035C0F8401542F85C
:1077800006B05B1A9259009223F07F43012B009AB6
:107790004FEA850A0CD1264B4FF4806043F0010379
:1077A0009847D8F8003043F806B09B590193019BE5
:1077B000D8F80010D1F80465C1F84473A31B23F076
:1077C0007F43012B1CD11A4B05F5A875013443F0FA
:1077D000010341F825404FF480609847D8F8003005
:1077E000D3F804359E4209D1D8F800300020C3F800
:1077F0004473C3F8047303B0BDE8F08F0D20FAE7BB
:107800008A44C9F1FF13CAF84045D1F80405221A89
:10781000013A22F07F4203F57F439342EED3002AE0
:10782000E2D10134CAF84045D1F804359842DAE78C
:10783000E0C7020003680222C3F8442309B1C3F879
:107840000423704700684FF48271FFF7F3BE4FF4D2
:10785000803303FA01F10368C3F84813C3F808132F
:10786000704750318900006889B2FFF7E3BE0368B2
:10787000D3F804057047000090F90430002B09DBB1
:107880005A09012103F01F0301FA03F340320249B0
:1078900041F82230704700BF00E100E0024B034A8C
:1078A0001B681068184700BF1C32002014320020EB
:1078B00010B561B1B2FBF3F403FB1424A4B244B9D4
:1078C000C0E9001484608281C381204610BD0E206F
:1078D000FCE70920FAE737B550E8013F9DB2C489BB
:1078E00025448489A54228BF2D1B0489A54202BFD7
:1078F000BFF32F8F002207E0C5EA030540E80154DB
:10790000002CE9D14FF001028DF803200193019B77
:107910009DF803200B6002F0FF0322B10B88006882
:10792000184403B030BD1846FBE70A884B889A42DA
:1079300009D150E8012FC2EA024240E80123002B9E
:10794000F7D1012070470020704737B550E8023F5B
:107950001FFAA3F5C488A54202BFBFF32F8F0022F0
:107960000DE0C48925448489A54228BF2D1BC3EAA4
:10797000054540E80254002CE8D14FF001028DF893
:1079800003200193019B9DF803200B6002F0FF038D
:1079900022B14B880068184403B030BD1846FBE79D
:1079A0000A884B889A4209D150E8022FC2EA224243
:1079B00040E80223002BF7D10120704700207047D8
:1079C00001F01F024B090121914000EB830000F000
:1079D0001EB801F01F0301229A404B0900EB8300FF
:1079E000D14300F02CB84B0901F01F0150F82300DF
:1079F000C84000F00100704710B5034653E8000F7F
:107A00000A4643E8002494F0000FF7D110BD10B5EA
:107A1000034653E8002F42EA010043E8000494F0D3
:107A2000000FF6D110BD10B5034653E8000F00EA71
:107A3000010243E8002494F0000FF6D110BD10B508
:107A4000034653E8002F02EA010043E8000494F0E3
:107A5000000FF6D110BD10B5034653E8002F02EB1E
:107A6000010043E8000494F0000FF6D110BD10B5FA
:107A7000034653E8002FA2EB010043E8000494F012
:107A8000000FF6D110BD0121FFF7C1BF0021FFF7A4
:107A9000CABF10B590B1D0E9012301689B1ADBB2CF
:107AA0000A60013BDBB2FF2B026802D1002010719B
:107AB00010BD11684C1C14600B70F2E70E20F7E744
:107AC00037B5054600240DF107008DF80740FFF794
:107AD00077FD2A686B68116899420ED9481E1060BC
:107AE00011F8014CEB68298A01FB0434AB68117969
:107AF0001B1ADBB2994238BF13719DF80700FFF7DC
:107B000083FD204603B030BD37B5054600230DF197
:107B100007000C468DF80730FFF752FD2A681368FE
:107B2000591C1160E968641A298AB4FBF1F41C70CD
:107B30009DF80700FFF768FD03B030BD826810B5FF
:107B400004462AB143690168006998470023A3608D
:107B500010BD0EB403B5039921B104AB01AA019382
:107B600000F076F802B05DF804EB03B070470A2924
:107B700038B504460D4602D10D21FFF7F8FFA36882
:107B80002268591CA160D554D4E901329A4204D329
:107B90002046BDE83840FFF7D1BF38BD2DE9F84F8A
:107BA0009846DDE90A43154682460F460A464FF0DD
:107BB0000109AA420FD2C14538BFC14613F0010BDB
:107BC00001D16CB900240126B8F1010F1BD908F1CD
:107BD000FF386E43F8E709F10109B2FBF5F2E8E777
:107BE0009B070ED5B8F1000F0CBF30262026A1450B
:107BF000E9D2013C31465046FFF7B9FF002CF6D1DF
:107C0000E0E72026F3E7B7FBF6F39D42E1D9DFF882
:107C10003C80B7FBF6F3504618F8031006FB1377C9
:107C2000FFF7A5FF3346AB42B6FBF5F6F1D2BBF149
:107C3000000F02D00CB1A14501D3BDE8F88F20217F
:107C40005046013CFFF793FFF4E700BFE6C7020090
:107C50002DE9F74F054617468846002900F0428176
:107C600018F8011B49B92B7B002B00F03B812846FB
:107C700003B0BDE8F04FFFF761BF252940F0B780A2
:107C8000002698F800302D2B424608F1010823D039
:107C9000302B24D02B2B25D000242A2B02F10101DC
:107CA00023D13B681A1D1B683A601C440A461378AE
:107CB0002E2B26D101324FF0000A104610F8011B7E
:107CC000A1F1300CBCF1090F1DD80A2303FB0A13E4
:107CD000A3F1300A0246F0E746F00106D1E746F08C
:107CE0000206CEE746F00406CBE711F8013CA3F10B
:107CF00030000928DBD80A2202FB0434303C0A4653
:107D0000CBE74FF0000A12F8011B01F0FB006828D6
:107D10009046F8D0782909D86F290CD8632962D009
:107D200022D8252963D0582900F0888098F800309F
:107D3000002B95D197E770390829F7D801A353F89C
:107D400021F000BFBF7E02002D7D02002D7D0200CC
:107D50004D7E02002D7D02002B7E02002D7D020053
:107D60002D7D02003D7E0200642901D06929DDD10C
:107D70003A68D2F80090111D89EAE9723960A2EBE5
:107D8000E9724FF0010B092A35DCD34538BFD346E1
:107D90002CB1B9F1000F01DB720700D5013CB3072C
:107DA00002D5BAF1000F03D0F00701D44CBB002478
:107DB000B9F1000F2DDAC9F100092D212846FFF78E
:107DC000D6FE06F00302022A04D1BAF1000F01D157
:107DD0001CBB0024CDE9004653460A2249462846EA
:107DE000FFF7DCFEA2E73B681A1D19783A602846C7
:107DF000FFF7BDFE9AE70A230BF1010BB2FBF3F28A
:107E0000C1E7A345D4D220212846013CFFF7AFFEAD
:107E1000CCE77107D5D52B21D0E7A345DAD23021A5
:107E20002846013CFFF7A3FED2E73968CDE90046BA
:107E30000A1D3A6053460A220968D0E739680A1DCC
:107E40003A60CDE9004653461022F5E73B681A1D1B
:107E50003A6016F00106D3F8009028D1B9F1000F6E
:107E600003D0484603F0FBFF0646B44200D904BBEA
:107E700009F1FF3919F8011F00293FF457AF2846CF
:107E8000FFF775FEF6E728460136FFF770FE19F892
:107E900006100029F7D1A642BFF448AF002C3FF4EA
:107EA00045AF20212846013CFFF761FEF3E700269D
:107EB000EDE720212846013CFFF759FED5E73B6856
:107EC0001A1D3A60302128461C68FFF750FE7821C1
:107ED0002846FFF74CFE00220823CDE90032214658
:107EE00010227CE703B0BDE8F08F00BF2DE9F84F0A
:107EF000B0F806A04579D2F800B09DF828900AFBAA
:107F000005F5043D88460BEB0301A94203F1040487
:107F100088BFA5EB030BB4FBFAF607460AFB164431
:107F2000C2F800B04EB9AAEB04055D4528BF5D4616
:107F3000BBF1000F04D1BDE8F88F3F68013EF1E7C7
:107F4000043408EB06003C442A46B9F1000F0DD07A
:107F50002146ABEB050B03F004FFDA452E443F68E6
:107F600055464FF0000428BF5D46E1E70146204634
:107F7000EFE7FFF78EBDF8B546790146721E05465C
:107F8000002393422D6803D30024A64202D8F8BDF3
:107F90000133F6E70F682846FFF7B6FD013439468E
:107FA000F3E72DE9F843068ACD1C0746FFF788FD65
:107FB000043E35440446B5FBF6F5F0B14FF480734A
:107FC000EDB28380C680013D076081464FF0000816
:107FD000A84512D23846FFF773FD064648B16379CB
:107FE0000133637108F10108C9F800000760814698
:107FF000EEE72046FFF7BFFF34462046BDE8F88392
:1080000001210430FFF727BD10B5012104460430DB
:10801000FFF72DFD10F0FF0F04D12046BDE8104002
:10802000FFF7A9BF10BD1FB503920022009203AA5B
:10803000FFF75CFF05B05DF804FB1FB5039201225A
:10804000009203AAFFF752FF05B05DF804FB41DF81
:1080500070470000064B10B500241C70054B1C60D7
:10806000BFF35F8F0449054800F039F8204610BD82
:10807000283200202C32002000C8020020320020CC
:1080800007B500230DF107008DF80730FFF798FAC8
:10809000F1EE103A23F09F03E1EE103ABFF35F8F49
:1080A000094B4022C3F884219DF80700FFF7ACFA82
:1080B00003F0A0FB20B1FFF7CAFF03B05DF804FB9B
:1080C00020BF40BF20BFF8E700E100E08368002246
:1080D0005A60C3E904229A60DA601A6070470B683C
:1080E0004A684360934208BF0023016008BF4360B1
:1080F0007047436843B10268916852680B449342E9
:10810000436004BF00234360704770B5446806466F
:108110000D46206818B1B3682946984718B92368F6
:108120002B60256070BD2468F3E74368186808B1C8
:1081300002681A6070474368186870474368186897
:1081400000B97047884203D102681A600120704765
:1081500003460068F4E7000010B50D49A1F59472DC
:10816000914201D800200FE08C1AE30F03EBE403E7
:108170005B1002EBC30452F83330834205D802D2BD
:1081800004F10802ECE7606810BD2146E8E700BF93
:108190000CCD020008B5FFF7DFFF024B002808BF37
:1081A000184608BDCFCB020010B50446C0B2FFF799
:1081B000DFF9204610BD0000044B1868421C04BFC4
:1081C000034B1878831F5842584170473001001004
:1081D000E00F00F0074B1B78062B09D1064B1B68FC
:1081E000C3F30313033B032B02D8044AD05C70474C
:1081F00000207047E00F00F0E80F00F014CD0200FF
:1082000008B5FFF7D9FF28B1834B844A1B68C3F335
:1082100004231360FFF7DEFF10B1814B814A1A601F
:10822000FFF7CAFF28B1804B804A1B68C3F3423373
:108230001360FFF7CFFF20B17D4AD36823F080732E
:10824000D360FFF7B9FF40B14FF080430022C3F87D
:108250000C21C3F81021C3F83825FFF7BBFF10B17C
:10826000744B03221A60FFF7B5FF40B1724B052231
:108270001A6001229A6700229A603F225A606F4B6F
:108280001A68511C0BBF6E4B6E4B1A781B6802BFED
:1082900008331B68C3F30313062A4DD1033B032B9A
:1082A00003D8694AD35C002B46D04FF08052674B0D
:1082B000D2F80414C3F82015D2F80814C3F8241512
:1082C000D2F80C14C3F82815D2F81014C3F82C15E2
:1082D000D2F81414C3F83015D2F81814C3F83415B2
:1082E000D2F81C14C3F84015D2F82014C3F8441572
:1082F000D2F82414C3F84815D2F82814C3F84C1542
:10830000D2F82C14C3F85015D2F83014C3F8541511
:10831000D2F83414C3F86015D2F83814C3F86415D1
:10832000D2F83C14C3F86815D2F84014C3F86C15A1
:10833000D2F84424C3F87025FFF73EFF28B1444B20
:10834000444A1B6803F04F031360FFF735FF48B141
:108350004FF08043D3F80024D20744BF6FF00102EE
:10836000C3F80024354B1B68062B0CD1354B1B681A
:10837000033B032B02D8384AD35C23B1374A136836
:1083800043F480631360364AD2F8883043F47003B4
:10839000C2F88830BFF34F8FBFF36F8F4FF01023B9
:1083A000D3F80022002A03DBD3F80432002B2FDAA3
:1083B0002C4B0122C3F80425D3F80024002AFBD05B
:1083C0004FF010221521C2F80012D3F80024002A21
:1083D000FBD04FF010231522C3F80422214B1A467C
:1083E000D3F800140029FBD00021C3F80415D2F8FB
:1083F0000034002BFBD0BFF34F8F19491A4BCA68CA
:1084000002F4E0621343CB60BFF34F8F00BFFDE780
:10841000164B174A1A6008BD24030010403501406E
:1084200074C007400DF0ADBA440200103C05004096
:10843000F0ED00E0A00500401056004030010010B3
:10844000E00F00F0340100100CCD020000C000402D
:1084500058020010E40E004010CD02003C1700400E
:1084600000ED00E000E001400400FA05FC2A0020D5
:108470000090D003054A4FF0A043105CD3F80435B8
:1084800023FA00F0C04300F0010070471CCD020049
:10849000044B1A5C012393404FF0A042C2F80C3504
:1084A000704700BF1CCD0200044B1A5C01239340AF
:1084B0004FF0A042C2F80835704700BF1CCD020043
:1084C00008B50020FFF7F0FF0120FFF7EDFF0220C5
:1084D000FFF7EAFFBDE808400320FFF7E5BF08B556
:1084E0000020FFF7D5FF0120FFF7D2FF0220FFF7A2
:1084F000CFFFBDE808400320FFF7CABF074A4FF08F
:10850000A041105CD1F804350122824022EA030028
:108510001340C1F80805C1F80C3570471CCD0200A6
:10852000054A4FF0A043105CD3F8103523FA00F051
:10853000C04300F00100704718CD02000D2809D09B
:108540000E2809D00F2809D010280CBF03204FF0A7
:10855000FF307047002070470120704702207047AD
:10856000014B185C704700BF18CD0200C20708B568
:1085700001460CD54FF0A0430322C3F84427C3F8AB
:108580004827C3F84C27C3F85027FFF799FF8B07FC
:108590000AD54FF0A0430C22C3F83427C3F838277C
:1085A000C3F83C27C3F8402708BD000038B5074C86
:1085B000051E04F1080318BF1C4623682BB11A6876
:1085C00022605B6828469847F7E738BD38320020BC
:1085D00020B9054B01225A70FFF7E8BF012802D1EC
:1085E000014A9070F8E770473032002020B9034B01
:1085F00001225A70FFF7DABF704700BF3032002007
:1086000038B50E4C2378B3B90D486360A36023617D
:10861000E36000F0E5F8054603F0ECF808B900F077
:10862000EDF801232370074BD3F800340BB101237D
:10863000A370284638BD8525F5E700BF30320020FD
:10864000D18502000000014037B50D4C00230DF12B
:1086500007008DF80730FEF7B3FFE368013BE360E6
:10866000E36833B9074BD3F8005415B900F0D8F8D4
:10867000A5709DF80700FEF7C7FF03B030BD00BF2F
:108680003032002000000140012813B50CD003282F
:1086900020D038B9124B0122C3F88020BFF34F8F8E
:1086A000BFF36F8F02B010BD0E4C00230DF1070019
:1086B0008DF80730FEF784FF23780BB9FFF7A0FF92
:1086C000E3689DF807000133E3600123A370FEF720
:1086D0009BFFE7E700F092F8FFF7B6FFE2E700BF85
:1086E00000E100E0303200201FB503788DF8003043
:1086F0004368019383688DF80830C368054A039383
:10870000054B684653F8213052F82110984705B0C0
:108710005DF804FB44320020483200201FB5037886
:108720008DF800304368019383688DF80830C36882
:10873000054A0393054B684653F8213052F821103F
:10874000984705B05DF804FB443200204832002011
:10875000F0B5194B90F800C091F81DE043F82C20BB
:10876000164B16460A6943F82C20154B03F80CE00B
:108770000C4607460FCC89B06D460FC594E80F0034
:1087800085E80F00CDF810C0BEF1000F09D0002E13
:108790000C4A694608BF3246381D00F0BDFD09B0DD
:1087A000F0BD002E084A694608BF324607F10C00AA
:1087B00000F08EFBF3E700BF483200204432002077
:1087C0004C320020E98602001D87020000F1804043
:1087D000002382B0036003680193019B02B07047DD
:1087E000054A13792BB901211060937191801846C5
:1087F00070478520704700BF50320020074B1A6831
:10880000D20704D4C02283F8002301221A604FF05B
:1088100080430022C3F81825704700BF00E100E044
:108820004FF0804208B50223C2F808334FF482703B
:10883000FFF7CCFF034B01211960D2F81834DB039A
:10884000FBD408BD0C000040244B1B6810B573B16D
:108850004FF48070FFF7BAFF4FF080430122C3F856
:1088600008231F4B587910B95A711B6898471D4B44
:108870001B6863B14FF48270FFF7A8FF4FF080438D
:108880000222C3F80823164B01201B689847164B99
:108890001B6863B14FF48870FFF798FF4FF0804377
:1088A0001022C3F808230E4B02201B6898470F4B79
:1088B0001B6893B10E4B00221A604FF48670FFF7CD
:1088C00085FF4FF080430821C3F80813044B9A71C9
:1088D000BDE810401B680320184710BD0001004090
:1088E0005032002004010040100100400C01004003
:1088F000340C004000F1804000F5C040002382B0FD
:10890000036003680193019B02B07047800000F18F
:10891000A040D0F8002722F44032C0F80027D0F859
:10892000003743EA0141C0F800177047054B4FF08C
:10893000FF32072843F8202084BFC01880F8482061
:10894000704700BF5832002010B51A4C94F85830C8
:108950006BBB4FF0FF3222FA03F1C90748BFE118A1
:1089600003F1010348BF81F83020202BF3D100210F
:10897000C8B2FFF7DBFF01310C29F9D10422002135
:108980000D4803F017FA0D4BC02283F8062340224E
:108990001A604FF4BE70FFF7ADFF094B4FF0004275
:1089A000C3F80423012384F85830002010BD0820A8
:1089B000FCE700BF58320020AC32002000E100E0AC
:1089C00000600040034B93F85800003818BF0120A6
:1089D000704700BF58320020F0B5364D2C1894F97E
:1089E0003040002C64DA8C78C4F34004002C0BBFB8
:1089F000082300230C260826B34201D10420F0BD31
:108A000055F8237001373FD12E1845F8232086F8FA
:108A1000303014B9EA1882F848008A78540713D421
:108A2000D60733D5820002F1A042D2F8004724F0E5
:108A30000204C2F80047204EC20800F007070124D4
:108A4000BC40B75C3C43B4548A780C7812F0020204
:108A500025D09B0003F1804303F5C0430202D3F805
:108A6000101521F4473121F44071C3F81015240486
:108A7000D3F8101502F4F85204F4403422430A43A8
:108A8000C3F810250020BAE70133B5E74C7800F5AC
:108A9000E0724FF0A046A40046F82240CBE7083B26
:108AA0002B4493F8501041EA841483F85040E9E7CE
:108AB0000820A4E758320020AC32002038B51F4C03
:108AC000251895F93020072A16DD224492F84830FF
:108AD0009B09032B0BD14FF0A043D3F81015C140D5
:108AE00001F001010231BDE83840FFF70FBF012B53
:108AF0000CBF02210321F6E7D3B2072B1CD8930049
:108B000003F1804303F5C043D3F8100540F00100A2
:108B1000C3F8100502F14000800080B2FFF7EAFEC2
:108B200051B195F9303054F823302BB1012303FAB9
:108B300002F2034BC3F8042338BD00BF58320020B3
:108B4000006000404FF0A043D3F8103523FA00F046
:108B500000F00100704700002DE9F74F00244E4D52
:108B600001944FF48072012102F1804303F5C04368
:108B700090B21B68012B06D1D5F804330B4202D00A
:108B8000FFF7B8FE0C430432B2F5907F4FEA410183
:108B9000EAD1424B1B68012B0CD14FF4BE70FFF79A
:108BA000A9FE4FF0A04344F00044D3F820250192E1
:108BB000C3F8202514F0FF0F1AD0394F00250126E5
:108BC000344210D0AB0003F1804303F5C043D3F827
:108BD0001005D3F8101557F8253023B1C1F3014122
:108BE000C0F3042098470135082D4FEA4606E7D127
:108BF000002C48DA2A4D4FF0A0482A4E4FF00009C9
:108C0000012716F9013B5A1C31D0C3F3C20202A955
:108C10000A44DCB212F8042C03F03F0A03F0070305
:108C200007FA03F31A4222D00AF5E073504658F8C7
:108C30002330C3F3014BBBF1020F0CBF0321022110
:108C4000FFF764FE07FA0AF3C8F8203505EB0A03BC
:108C500093F9303055F823304BB1A109032904D0E2
:108C6000BBF1020F12D1012901D15046984709F1F9
:108C70000109B9F1040FC4D1D8F820350193C8F81F
:108C80002035002BB9D103B0BDE8F08FBBF1030F45
:108C9000EDD10229E8E700BF006000407C610040A0
:108CA00058320020A8320020014B1B68184700BF33
:108CB000B43200200E4B984237B50C4602D000204B
:108CC00003B030BD00230DF107008DF80730FEF72B
:108CD00077FC084B1D7915B901221C601A719DF8AB
:108CE0000700FEF791FC002DE9D01120E8E700BF56
:108CF00000200040B43200200023435082B043588B
:108D00000193019B02B070470A4610B54FF48E7173
:108D1000FFF7F2FF136A9168C95C136A01331362AB
:108D2000C0F81C1510BD024608B500684FF49271DA
:108D3000FFF7E2FF4FF484711068FFF7DDFF13685F
:108D400001221A6008BD8B690A4610B54FF4847180
:108D500023B9FFF7D1FFD0F8183510BDFFF7CCFFCE
:108D6000536AD168D0F81805C854536A0133536266
:108D7000F3E700001FB501238DF80030044BCDE967
:108D80000110D3E900126846904705B05DF804FB76
:108D9000BC32002030B54C48D0F8043313F4007FC7
:108DA00085B005464DD0D0F82431002B49D04FF482
:108DB0009271FFF7A1FF4FF40173C0F80833434BE2
:108DC00093F829200AB9012242603F4902228DF816
:108DD0000020D1F88024C1F8802403929A6902927D
:108DE000DA6801920022C3E906226846D3E900123C
:108DF00090473548D0F81C315BB134494A690B6A59
:108E00009A420A464AD991F82830002B46D1FFF7FA
:108E10007BFF2D48D0F844318BB14FF4A271FFF79E
:108E20006BFF2A4B93F829200AB1012202609A694C
:108E30002AB10022586AD9689A61FFF79BFF05B0F2
:108E400030BDD5F804335B07D3D5D5F80831002BF6
:108E5000CFD01E4C1C482146FFF775FF636AA269FC
:108E60009A422346C5D1E269E1684AB12369E360C9
:108E70000023606AA261E3616362FFF77BFFB8E7EA
:108E800094F829200AB901226A600F4A4FF4017050
:108E9000C2F808030022586A9A61EEE70A484FF4C4
:108EA0008E71FFF729FF5369002BB2D051690291EF
:108EB000002391688DF80030019153616846D2E932
:108EC00000139847A5E700BF00200040BC320020F7
:108ED0002DE9F843544B057991462C2202FB0532CB
:108EE000064692F82A200C469846002A40F09880C0
:108EF0004E490068FFF7DEFE0746002840F09280EA
:108F000021683368481C0BD04FF0A04001228A40F2
:108F1000C0F8082501F5E0724FF0030C40F822C0BC
:108F20006068421C1FBF00F5E0724FF0A04C4FF08C
:108F3000000E4CF822E0A269C3F8242594F814C06E
:108F4000627DBCF1010F4CEA0202C3F86C25C3F844
:108F50001405C3F80C151DD1A1684A1C1FBF01F5EB
:108F6000E0724FF0A0404FF0000C40F822C0E268E1
:108F7000501C0BD04FF0A04C01209040CCF80805BD
:108F800002F5E0704FF0030E4CF820E0C3F808251E
:108F9000C3F810152C236B4308EB0302C2F80490AE
:108FA000226948F80320B9F1000F21D03068247FEE
:108FB0004FF48E71FFF7A0FE4FF4A2713068FFF7F7
:108FC0009BFE32681A4BC2F80433110B42F307328E
:108FD0006301002ADBB21EDB1648841884F80033D4
:108FE0000123520901F01F0103FA01F140F8221098
:108FF00033680422C3F800252C2303FB05830022D9
:10900000C3E9062283F829205A61012283F82A2025
:109010003846BDE8F883084A01F00F015354E7E7EA
:109020000827F5E71127F3E7BC320020958D0200F1
:109030008000020000E100E014ED00E02DE9F047BF
:10904000204F90F804904FF02C0808FB0974054657
:109050006669002E34D162610068A16026624FF417
:109060008E7184F82860FFF747FE2868012383602B
:109070002146FFF749FE6368A0468BB92868D4F8FB
:1090800014A0236A9A4511D82A68D2F81C31002B03
:10909000FBD00123D3602C2303FB097300225A6108
:1090A0003046BDE8F08794F828303BB9D0F81C3141
:1090B000002BF8D04146FFF727FEE2E70F26EAE74C
:1090C0001126EDE7BC3200200379044A2C2101FB74
:1090D00003235869003818BF01207047BC320020B4
:1090E0002DE9F843394F05792C2303FB0573064618
:1090F0005C6824B103684FF40170C3F808032C23A3
:1091000003FB0573986950B1D86900283ED024B19B
:1091100033684FF40172C3F80423112433E09A61D9
:10912000D9605862D8612C2303FB057393F829306A
:109130001BB910B93046FFF7F6FD4FF02C0909FBBB
:1091400005783068D8F80430002B34D14FF4A27180
:10915000C146FFF7D1FD3068D0F82431D0F808219E
:10916000D0F84441B2B90CB9002BF4D02C2202FB48
:1091700005750022AA6123BB2CBB95F82910336822
:109180000122B1B11A602046BDE8F8831961DA61A5
:109190000120C8E7002BE9D1002CE7D14946FFF7B1
:1091A000D2FDD8F82430D8F818209A42D3D82346D4
:1091B000DCE75A60E7E74FF40173C0F8043300249A
:1091C000E1E70324DFE70F24DDE700BFBC32002026
:1091D0000023435082B043580193019B02B0704773
:1091E0001FB501238DF80030044BCDE90110D3E900
:1091F00000126846904705B05DF804FBE832002095
:109200007FB5434AD2F82461002E60D010464FF457
:109210009271FFF7DDFF02238DF80030D2F8803421
:10922000C2F880340393D2F83C350293394BDA68A4
:1092300001920022C3E906226846D3E90012904752
:109240003348D0F8443173B14FF4A271FFF7C0FF37
:10925000304B9A693AB10022C3E90622D968D0F8A6
:109260003C05FFF7BDFF2A48D0F82031ABB14FF4E1
:109270009071FFF7ADFF0123C360264B5A6962B1BD
:10928000D0F84C150291002299688DF800200191C8
:109290005A616846D3E9001290471D48D0F858310A
:1092A0009BB14FF4AC71FFF793FF1A4B5A6962B14F
:1092B000D0F84C150291002299688DF80020019198
:1092C0005A616846D3E90012904704B070BDD2F8E5
:1092D0001031002BB4D04FF488711046FFF778FF9F
:1092E0000C4BD2F83C0599698842A9D1DC69D96850
:1092F00064B1D2F8005225F02005C2F800521A6974
:109300009C61DA60DE61FFF76BFF99E79C61FAE729
:1093100000200040E83200202DE9F8435B4B06793D
:109320009146242202FB0632044692F820200D4684
:109330009846002A40F0A58055490068FFF7BAFC1E
:109340000746002840F09F8029682368481C0BD0FE
:109350004FF0A04001228A40C0F8082501F5E072D4
:109360004FF0030C40F822C06868421C1FBF00F594
:10937000E0724FF0A04C4FF0000E4CF822E0AA69CA
:10938000C3F8242595F814C06A7DBCF1010F4CEA9E
:109390000202C3F86C25C3F80C15C3F814051DD1DF
:1093A000A9684A1C1FBF01F5E0724FF0A0404FF0C2
:1093B000000C40F822C0EA68501C0BD04FF0A04CC3
:1093C00001209040CCF8080502F5E0704FF0030E44
:1093D0004CF820E0C3F80825C3F810152423734384
:1093E00008EB0302C2F804902A6948F80320B9F197
:1093F000000F30D020682A7F4FF48871FFF7E8FE15
:1094000020684FF49071FFF7E3FE20684FF49271EB
:10941000FFF7DEFE20684FF4A271FFF7D9FE4FF48C
:10942000AC712068FFF7D4FE23681A49C3F804130F
:10943000190B43F307335201002BD2B21CDB164841
:10944000C51885F8002301225B0901F01F0102FA0B
:1094500001F140F8231023680822C3F800252423D3
:1094600003FB06830022C3E906225A61012283F826
:1094700020203846BDE8F883084B01F00F015A540C
:10948000E9E70827F5E71127F3E700BFE8320020F6
:10949000019202001003420000E100E014ED00E040
:1094A00001F06043B3F1005F2DE9F041064638D189
:1094B0001E4B0779242505FB073598466C69002C5F
:1094C00031D16A610068A9604FF49071FFF780FEA6
:1094D0004FF4AC713068FFF77BFE33686A69A968A6
:1094E000C3F84415C3F8482501229A606A68AAB9EE
:1094F000D3F82021D3F858411AB9002CF8D00F2402
:1095000007E0002CFBD10122DA60D3F85821002AB1
:10951000FBD0242303FB078700237B612046BDE8A3
:10952000F0811024FAE71124F8E700BFE8320020A8
:109530000379044A242101FB03235869003818BF2A
:1095400001207047E8320020F8B501F06043B3F124
:10955000005F04460F465ED10379304D242101FBA4
:109560000351496821B100684FF40476C0F80863DC
:10957000242000FB03539E6956B1D869002839D0D6
:1095800021B123684FF40472C3F80423112030E0A2
:109590009A61DF60DE6120684FF48871FFF718FE82
:1095A00020684FF4A271FFF713FE2368C3F83475E7
:1095B000C3F8382516BB01221A602179242202FB48
:1095C000015252680ABBD3F81041D3F84421D3F8B2
:1095D0002401144302D10028F5D02246242303FBA2
:1095E00001550023984218BF03209A42AB6118BF6F
:1095F0000F20F8BD1F61DA610126CCE7D3F8002205
:1096000042F02002C3F80022D7E74FF40472C3F8F7
:1096100004230020EDE71020EBE700BFE832002034
:109620000220FEF76BBF00002DE9F04780460D4693
:10963000FEF784FF0328044610D8012D10D0022D18
:1096400030D05DB91A48FDF7D6FD1A4B04EB440241
:1096500013449E78184B1B5DB34219D0BDE8F087C8
:10966000144D00EB4002A918AE5C4A78470052B195
:10967000DFF84C900E484A464FF48041FDF7A3FDB9
:1096800008B989F800803B192B449A780A4B1A557F
:10969000002EE3D0094B1B68002BDFD03046BDE81D
:1096A000F047184700EB4004024804446678EFE7AF
:1096B00030330020703300208933002084330020B1
:1096C0000C33002000780221FFF7AEBF08B5094B2C
:1096D0001B7853B10020FEF7E7FE0120FEF7E4FE01
:1096E000BDE808400320FEF7DFBEBDE80840FEF7F6
:1096F000E7BE00BF0D330020F8B57B4C237805464C
:109700001BB100232370FFF7E1FF172D00F28880C3
:10971000DFE805F00C17174354657680888D888D37
:10972000959A9A9A9A9AC4C9D1D9E4E4FFF7CEFFE0
:109730006E48FDF760FD6E4B002204461A7020460D
:10974000F8BD0020FEF796FEF8B10020FEF7ACFE53
:10975000022D0CBF4FF4E1614FF47A61644B1D7030
:109760004FF400404FF47A740025E0FB01454FF4BC
:10977000FA6200232046294602F0C8F90022014679
:10978000BDE8F8405948FDF71EBDFEF781FE022DE9
:109790000CBFC8214FF4C871E0E70020FEF76AFE55
:1097A00040B10020FEF780FE4FF44871504B032279
:1097B0001A70D5E7FEF76CFEC821F7E70020FEF728
:1097C00059FE38B10020FEF76FFE4FF47A61484B26
:1097D0000422EDE7FEF75CFE4FF4C871F7E70020C6
:1097E000FEF748FE48B10020FEF75EFE404B052222
:1097F0001A7040F6CD410022C2E7FEF749FEF5E7B8
:109800000020FEF77BFE3A4B06221A70002240F23F
:109810006661B5E70020FEF73BFE354B07221A7064
:1098200000248CE701202070FEF768FEEEE701209F
:109830002070FEF763FE00224FF40051A0E7FEF710
:109840004EFE2B4B0C22EAE72A482B4EFDF7D3FCA9
:10985000D5F1110504461CD0D8B9012D13D0C82369
:109860005D434FF400474FF47A7000214FF4FA62E1
:109870000023C7FB050102F049F9224601461D48B5
:10988000FDF7A1FC04460220FEF702FE012333701F
:1098900055E70220FEF708FE0023F8E7FFF716FF62
:1098A000134B1222BBE7FFF711FF0020FEF7F0FD7C
:1098B0000F4B1322B3E7FFF709FF0120FEF7E8FD86
:1098C0000B4B1422ABE7FFF701FF0020FEF7E0FD92
:1098D0000120FEF7DDFD064B1522A0E7FEF7FFFD98
:1098E000034B1D709CE700BF8033002050330020E5
:1098F00088330020103300200D330020044B1B68F8
:10990000DB0703D5034B1878FFF7F6BE704700BF9F
:109910007C33002088330020032801D8FEF700BEE6
:1099200000207047044B1B6813F0010301D0FFF7C0
:10993000E3BE1846704700BF7C33002038B51C4B8F
:1099400018601C4B10F00204054619601AD01A4B1F
:109950001A480E221A700F22DA7010229A71112200
:109960005A72042140F23332FDF790FA044648B9A6
:10997000FDF7E2FA044628B90146114A1148FDF7FD
:1099800017FC0446EB0711D50120FEF7EFFD6CB97B
:1099900021460D4A0D48FDF70BFC044630B9BDE8E1
:1099A00038400B4A0B480121FDF702BC204638BD68
:1099B0007C330020843300207033002044CD02002B
:1099C000C596020068CD0200FD9802006CCD020031
:1099D0002196020064CD0200032811D8012A0AD181
:1099E00001290FD100F10E02D2B20D4B00EB400065
:1099F0001A54002070470129F7D0022904D049B138
:109A0000072070470022F8E7054B00EB40001844A0
:109A10004270EEE7024B00EB400018448270E8E72A
:109A200070330020032808B512D8FEF799FD800096
:109A300000F1A040D0F8003723F44033C0F80037DD
:109A4000D0F8003743F44033C0F80037002008BD99
:109A50000620FCE708B5012202210020FFF7BCFF29
:109A600008B1072810D1072202210120FFF7B4FF17
:109A700008B1072808D100210A220846FFF7ACFFE9
:109A800010B1072808BF002008BD00000388102B74
:109A900010B502D0112B1ED010BD1A4C2168B1B9DF
:109AA00001220846FFF798FF08B1072824D10722B2
:109AB00002210120FFF790FF08B107281CD10422E2
:109AC00002210020FFF788FF08B1072814D123687E
:109AD00001332360E0E70B4A1368013B1360002B5E
:109AE000DAD1FFF7B7FF0028D6D0074B1B68002B51
:109AF000D2D0BDE810401847034B1B68002BE6D0BE
:109B00009847E4E7943300209033002008B5002004
:109B1000FFF788FF08B1062806D10120FFF782FF72
:109B200010B1062808BF002008BD00000D4B10B57D
:109B300018600C4629B10120FFF7EEFE40B1022368
:109B40002370094B1B6853B9BDE81040FFF782BF73
:109B5000FFF7E2FE08B10B23F2E72070F1E70020E7
:109B600010BD00BF903300209433002076DF704793
:109B70007ADF70477CDF70477FDF70478FDF704789
:109B8000B1DF704733DF7047FDF7ECB908B500204F
:109B9000FFF7C8FE08B1FDF7E5F9FFF7B7FF08B119
:109BA000FDF7E0F9FFF7EEFF18B1BDE80840FDF75B
:109BB000D9B908BD0388212B13B5044649D007D86D
:109BC000112B31D0132B4CD0102B0CD002B010BD68
:109BD000522B4ED0562B01D03B2BF7D1A08813210E
:109BE000FFF7C4FF1BE0274B27482849C01AC008CD
:109BF000000440F00300FCF7DBFE0720FFF792FEB5
:109C00004FF0A0434FF00072C3F8082508B1FDF7EC
:109C1000A9F91F4BA1881F48198001F0B5FB002846
:109C2000D4D0FDF79FF9D1E7164B17481A49C01A4F
:109C3000C008000440F00300FCF7BAFE4FF0A04358
:109C40004FF00072C3F80C25114B4FF6FF721A80CB
:109C5000BCE7002301A98088ADF80430FFF78EFF30
:109C6000DDE70B4800231A4685210088FFF784FFB3
:109C7000D5E7074800231A4619460088FFF780FFFA
:109C8000CDE700BF9CC50200C4C5020070CD020034
:109C9000062B0020DC3800207ACD02000D4B4A88CC
:109CA0001B889A4214D10A8840F677239A420FD132
:109CB0008B88094A09480A49033B9BB21380094A29
:109CC000801AC00800041A4640F00300FCF77DBE6D
:109CD000704700BF062B0020042B0020C4C50200E3
:109CE00087CD02009CC5020008B503784BB9054B2F
:109CF0003B211888FFF73AFF18B1BDE80840FDF78F
:109D000031B908BD062B0020072808B513D00A2852
:109D10000DD0042819D10D4B13211888FFF726FF09
:109D200030F0080311D0BDE80840FDF71BB9BDE8CD
:109D30000840FFF72BBF054B1A884FF6FF739A4276
:109D400003D1034800F0D1FEEAE708BD062B00204E
:109D50009034002008B548B103280BD10220FFF74A
:109D6000E1FD38B1BDE80840FDF7FCB8BDE80840AA
:109D7000FFF70CBF08BD0000F7B50378012B33D007
:109D8000022B31D073BB1A4C1A4D20782844FDF7B2
:109D9000D9FB23780133DBB21D44237015F8012C65
:109DA0000A2A05D00D2A03D0134A12889A4219D8DC
:109DB000012B15D9114D0F4E114F2378ADF80630F8
:109DC0000DF106022B883146384601F057FC082871
:109DD00006D01328F1D0052802D008B1FDF7C2F84B
:109DE0000023237003B0F0BD4068FDF7BBF8F9E72E
:109DF0008C34002098330020042B0020062B0020F8
:109E0000082B00202DE9F0410578064645BB154C8E
:109E1000154BDFF85880E41AE408240444F00104E8
:109E2000B28A95420AD33369134413F8013C0D2BCF
:109E300016D10A20FDF79CFB1128F9E73369585D1C
:109E4000FDF796FB074648B11128F7D00246414678
:109E50002046FCF7B1FD3846FDF784F80135DFE711
:109E6000BDE8F081C4C502009CC50200A3CD02007C
:109E7000FDF778B808B50849084801F071F908B14C
:109E8000FDF770F80548F72101F07EF918B1BDE83B
:109E90000840FDF767B808BD9D9C0200C43800204B
:109EA00000B54FF0A043744D0322C3F864270FCDD3
:109EB000B1B005AC0FC495E80300704B704A019334
:109EC0004FF4807384E80300CDE9032302936D4AC5
:109ED000072301A905A8FDF7DDFA08B1FDF742F84F
:109EE0004FF480410020FCF7CFFB08B1FDF73AF8B2
:109EF000FCF70AFBFDF72AF908B1FDF733F86249D0
:109F00000320FFF71BFD08B1FDF72CF805A9002081
:109F1000FFF70CFE08B1FDF725F8FEF79BF808B136
:109F2000FDF720F801F028FC08B1FDF71BF800232D
:109F300005A90120059301F0ADFC08B1FDF712F869
:109F400005A801F077FD08B1FDF70CF811234F4883
:109F50008DF8043001F083FF4C4982B201A8FFF76D
:109F600009FE08B1FCF7FEFF0021082205A801F058
:109F700021FF47494FF0C87305A8CDE90513FFF746
:109F8000F7FD08B1FCF7EEFFFFF774FF414B4248C5
:109F9000059305A901F0E6F908B1FCF7E3FF0422F7
:109FA00000210DEB020001F005FF3C4B3C48019302
:109FB00001A901F0E9FA08B1FCF7D4FFAC220021B5
:109FC00005A801F0F7FE02238DF814304FF4A063CA
:109FD000344AADF816300123ADF8603019928DF88F
:109FE0009030402244F25063CDE927232E482F4B76
:109FF0002E9305A900F0B9FB08B1FCF7B3FF2A487E
:10A00000012100F0AFFB1C22002105A801F0D2FEC7
:10A0100000234FF4A032CDE90532ADF822304FF4E1
:10A02000F0228DF82430224B07920A930322214B11
:10A030008DF8202005A80B9300F074FE08B1FCF702
:10A0400091FF1D4801F05CFE1C4B1D481D49C01AC4
:10A05000C008000440F00300FCF7AAFC12480321EA
:10A0600000F002FC08B1FCF77DFFFCF75DFB002867
:10A07000FBD1FEF705F8F8E714CE0200E83800201F
:10A08000E8390020799D0200099D0200CECD020032
:10A0900010003C00899B0200DC380020059E020075
:10A0A000082B0020002B002090340020559D02003A
:10A0B000E99C0200719E0200D7CD02009CC50200FF
:10A0C000C4C50200E9CD02000369C1688B429DBF8F
:10A0D0008268D21802F1FF3203F1FF3394BF501AA5
:10A0E000581A70472DE9F843D0E902940546A9EBC8
:10A0F00004084068904520440F46144404D901F0F8
:10A1000030FEEC60BDE8F8834246A4EB090401F0A0
:10A1100028FE6868224607EB0801F0E72DE9F843BE
:10A12000C5680646894617464FF000083469B3688B
:10A130007068A54228BFE418013C621B5C1BBC424E
:10A1400028BF3C46944228BF14464946284422462C
:10A1500001F007FEB3682544AB4208BF00253F1B52
:10A16000A044A144F560E1D14046BDE8F883000079
:10A1700010B5114C114AA2610223C4E90433104BFB
:10A18000E361A2644FF400730E4A0F492362E26454
:10A1900000231022E01DA3626362E362A36563658E
:10A1A000E365226501F039FE0849204601F035FEDD
:10A1B0002023A37110BD00BFE83A00202CCE02007E
:10A1C000703B0020603B002035CE020039CE0200FB
:10A1D000F8B5184C182300FB033503FB0040254459
:10A1E000C46A012C0F4616460FD0022C1AD0F4B9BF
:10A1F0002846FFF769FF864205D832463946284689
:10A20000FFF770FF34462046F8BD2846FFF75CFF95
:10A210008642344628BF0446224639462846FFF780
:10A2200061FFF0E72846BDE8F840FFF777BF00245C
:10A23000E9E700BFE83A0020FFF79ABF6DDF7047FB
:10A2400079DF70477DDF704764DF70472DE9F04F9D
:10A2500085B000250E9CBDF83CB0B4F800A001917B
:10A26000074690461E46A9463A884A450DDC45B148
:10A270002388013BA3EB0A039BB2FF2B3AD806F8D5
:10A280000A30002005B0BDE8F08F7A6852F8290046
:10A29000039000220DF10B0103A8FFF7D5FF002862
:10A2A000F0D19DF80B20424521D12288002D14BF0A
:10A2B0000020022002EB0801014459451ADC3DB997
:10A2C000013292B2019B2280B35422880132228053
:10A2D00022880DF10B01324403A8FFF7B5FF0028D7
:10A2E000D0D121889DF80B200A442280012509F154
:10A2F0000109B9E70C20C5E72DE9F341089FBDF836
:10A3000024801546CDE90078022204461E46FFF758
:10A310009DFF50B93346102229462046CDE90878E2
:10A3200002B0BDE8F041FFF791BF02B0BDE8F08197
:10A330002DE9F04F00231788138090F82D3085B059
:10A3400006460D46144653B3082F01D80C2027E1CA
:10A3500002A8FFF773FF002840F02281238808221B
:10A36000EA54238801339BB21B222380EA542088BD
:10A37000013080B2208006220DF10901284401F04D
:10A38000F0FC23889DF8082006339BB212F0FE02F1
:10A3900018BF01222380EA54238801332380B37835
:10A3A000FBB123880433BB42D0D802A8FFF748FF93
:10A3B000002840F0F58023880322EA5423880133E3
:10A3C0009BB219222380EA542388BDF80820013368
:10A3D0009BB2E9182380EA54120A4A702388023398
:10A3E0002380F2789AB12388D91CB942AED80221D1
:10A3F000E954238801339BB201212380E954238847
:10A400000B449BB22380EA5423880B442380726858
:10A41000AAB12388D91CB94298D8022192F9002008
:10A42000E954238801339BB20A212380E95423880D
:10A4300001339BB22380EA5423880133238033897C
:10A44000002B40F0A180338A5BB1CDE900472B4659
:10A450000722032106F11000FFF74EFF002840F00D
:10A460009F80338B5BB1CDE900472B461522142129
:10A4700006F11800FFF740FF002840F09180326A93
:10A48000002A40F09080D6F82480B8F1000F30D038
:10A49000B8F804302188981C8A1C0244BA423FF65E
:10A4A00055AFFE283FF652AF03336B542388013378
:10A4B0009BB2FF222380EA54238801339BB223807E
:10A4C000B8F80020EA54E918120A4A7020880230CD
:10A4D00080B22080B8F804205AB1D8F808100029BA
:10A4E0006BD0284401F03DFC2388B8F804201344C5
:10A4F000238096F82C30002B40F09A80307800288A
:10A500004ED03388012B58D0228802F1020CBC4572
:10A510003FF61CAF012805D17378023313449F42E4
:10A52000FFF414AF023FBF1ABFB202A905EB0C0043
:10A53000ADF80870FFF786FE90BB3178BDF80830A3
:10A54000022900F0BA8072789A4202D3BB4240F2EC
:10A55000B280012940F0B380974293B2C0F0AF803F
:10A56000ADF808300821BDF80830FE2B3FF6EEAEFE
:10A5700022880133AB542288013292B22280A9543E
:10A580002288134423800BE0CDE900472B460622A6
:10A59000022106F10800FFF7AFFE00283FF453AF99
:10A5A00005B0BDE8F08FB4F800C00CF10603BB4263
:10A5B0003FF6CCAE1188052901D80720F0E76FF4EB
:10A5C000486E01EB0E039BB24FF27D3E7345F4D90A
:10A5D0005388052BF1D96FF44860181880B2704584
:10A5E000EBD94FF6FF70814203D0834201D09942EC
:10A5F000E3D8052305F80C30238801339BB21221E0
:10A600002380E954238801339BB223801188E954C5
:10A61000E818090A4170238802339BB223805288CC
:10A62000EA54E918120A4A702388023323802AE781
:10A63000B36A002BC1D04FF000094FF00C0A4FF065
:10A64000160B96F82C305FFA89F293427FF656AFDC
:10A65000B16A0AFB02F201EB0208B8F80430981C58
:10A66000FE283FF673AE208803332B542388013332
:10A670009BB2238005F803B0238801339BB223806B
:10A680008A5AEA54E918120A4A702088023080B2C5
:10A690002080B8F804205AB1D8F8081000298CD0CE
:10A6A000284401F05EFB2388B8F80420134423807B
:10A6B00009F10109C5E7092155E7BB42FBD9ADF80E
:10A6C00008704FE730B5C8B1F2B10024651C8D4267
:10A6D00006DA1588A54212D805196D789D420ED16B
:10A6E000A14211D9005D48B1013880B230B10234C5
:10A6F000A3B210FA84F4A14206DB138030BD055DDD
:10A7000001352C44A4B2E1E70020F7E713B5134666
:10A710000022ADF806200DF106020446FFF7D2FF35
:10A7200010B1BDF80630E01802B010BD72DF7047FE
:10A7300073DF704774DF704738B5012204460D4659
:10A74000B0F81414D0F81004FFF7E0FF00B1057062
:10A7500004F13C0204F5826104F15400BDE8384084
:10A76000FFF7E4BF80F830107047F8B504460F4695
:10A77000002975D0002873D091F87A301BB191F878
:10A780009830002B6ED1D7F8A030042B6AD0D7F8C0
:10A790009C30042B66D04FF0000C84F802C007F107
:10A7A00078060FCE251D0FC50FCE0FC596E8070002
:10A7B00085E8070084F830C0D7F8A4306363D7F881
:10A7C000A830A3634FF6FF7504F58263C4F8203404
:10A7D000A4F824540722614604F2264001F0EAFA64
:10A7E00023780BB984F8545094F82430002B14BF0C
:10A7F000EE231F2304F15501C4F81014A4F81434F7
:10A8000004F214423846FFF793FD40BB94F824301D
:10A81000002B14BFEE231F2304F23121C4F81814B7
:10A82000A4F81C3404F21C4207F13C00FFF780FD41
:10A83000A8B9A369A4F848304FF480730125A4F89F
:10A84000503063692064014684F83C50636404F12D
:10A850003C0204F15400FFF769FF00B92570F8BD10
:10A860000E20FCE70720FAE7F8B5077804460D4606
:10A87000002F00F0038100F226468170072200219C
:10A88000304601F097FAE38813B1A378012B04D086
:10A89000E3794BB1A378022B06D1636BA3B10122FC
:10A8A00084F82D2408209847334604F22C4113F8ED
:10A8B000012F12B99942FAD117466B1E032B51D8BA
:10A8C000DFE803F0050B0F1284F82D34ECE7A379D1
:10A8D0001BB194F8243003B95FB9E3790BB1002FB1
:10A8E00042D1237A002B41D1637A002B0CBF002583
:10A8F0000425636BA570002B3AD0033D012D37D89A
:10A900006279AAB394F82E2492BB84F830240122F1
:10A9100084F82F240720984704F13C0518220021D1
:10A92000284601F047FAE26A531E0121022B28BF94
:10A930000A4684F8512094F8242084F83C1032B15F
:10A94000A36A581E022828BF0B4684F85230A1780B
:10A95000002384F8503004291BD8DFE801F0770D7C
:10A96000223559000025C4E70225C2E70325C0E7C8
:10A97000002384F82F34CFE7C4E91063C4F82034EF
:10A980000223012284F83C30802384F83120A4F88B
:10A990004830A378002B5CD1636B002B6AD1002078
:10A9A00067E00223002A84F8313014BF0723032311
:10A9B00084F83C302369A4F848300023C4F82034DC
:10A9C000E36826646364E4E763696364A369A4F8E5
:10A9D000483012B1062384F83C306379B3B194F85F
:10A9E0002E349BB994F8303483B1022384F850306C
:10A9F00004212046FFF7A0FE0028CAD1052384F8D1
:10AA0000313004F58263C4F82034C2E70323F6E74B
:10AA1000E3696364236AA4F8483012B1062384F81A
:10AA20003C30637983B194F82E346BB994F83034A8
:10AA300053B1022384F8503004212046FFF77CFEF6
:10AA40000028A6D10623DAE70423D8E784F83130BA
:10AA50009FE7D4F820142A4604F15400FFF766FE5D
:10AA600038B994F8301094F85400FFF761FE0028CC
:10AA700092D0F8BD94F83100984790E70820F8E7A5
:10AA80000388112B10B50C460AD0262B1FD0102B93
:10AA900005D1C37B012B02D18388A1F8243410BDDA
:10AAA0000022838881F82E24B1F824249A42F6D11A
:10AAB0000B79002BF3D101212046FFF7D5FE0028AA
:10AAC000EDD0A36B002BEAD0BDE810401847037A05
:10AAD000013B012BE3D8897805230131B1FBF3F366
:10AAE00003EB8303C91AC9B2E6E738B5044690F808
:10AAF0005400FFF71FFE012384F82E34002384F84E
:10AB0000303484F8503006212046FFF715FE054604
:10AB100038B9A1782046FFF7A7FE10B1A36B03B1A7
:10AB20009847284638BD75DF704776DF70477ADF73
:10AB300070477BDF70470000034B1A8882420CBFCE
:10AB400018460020704700BF8C3D0020024B9B69D7
:10AB500003B11847704700BF703D002073B585B240
:10AB60002846FFF7E9FF044670B1164E027A337BA0
:10AB70009A420BD200F10A012846FFF7D4FFE8B150
:10AB8000112801D0FFF7E2FF02B070BD002303726D
:10AB9000337C43B13B212846FFF7C7FF30F0080361
:10ABA00001D0FFF7D3FF7369002BEDD000228DF8A1
:10ABB0000420ADF8065001A89847E5E7237A013351
:10ABC0002372E1E7703D002037B50B46497A0F4A02
:10ABD00071B9D2E901141D7A0246002D18BF214631
:10ABE0005868FCF7F0FA08B1FFF7B0FF03B030BDCA
:10ABF000002119725369002BF8D00122ADF806002C
:10AC00008DF8042001A89847F0E700BF703D0020B0
:10AC10004B8802889A4213D842889A4210D380887F
:10AC20008A8840F2F313984294BF031AC31A9342DE
:10AC300006D800F2F310904234BF00200120704784
:10AC4000002070470388122B70B5014659D004D8F4
:10AC5000102B1ED0112B44D070BD502BFCD12F4B8C
:10AC6000C288DB899A42F7D1038A022BF4D1868805
:10AC70003046FFF761FF05460028EDD001F11200D4
:10AC800000F079F938BB6868FCF7B5FA0028E3D022
:10AC900009E0C37B012BDFD14FF6FF70FFF74CFFBC
:10ACA000054620B90420BDE87040FFF74FBF1C4A9D
:10ACB0008E880680002303721368C0F80A30536838
:10ACC000C0F80E3010310A30FFF7A2FF134B687244
:10ACD000DB89002BC0D129463046BDE87040FFF724
:10ACE00073BF8088FFF728FF04460028B4D040686F
:10ACF000FCF781FA08B1FFF729FF4FF6FF732380B5
:10AD0000AAE786883046FFF717FF05460028A3D03C
:10AD100008310A30FFF77CFF6872DCE7703D0020E5
:10AD2000A03D0020F8B5064648B305460FCD154FA7
:10AD30003C460FC495E8070084E807003068124CD1
:10AD40003C60B0B1FFF7F3FEC0B93268136823600E
:10AD5000536863600D480E4A4FF6FF7303800D4B36
:10AD600040F8043F0021FCF723FA002818BF032015
:10AD700004E02046FFF7DDFE0028EBD0F8BD0E20F2
:10AD8000FCE700BF703D0020A03D00208C3D00206E
:10AD90005DAB0200A83D00200AB1FCF711BEFCF734
:10ADA00018BE73B50191019C06466CB100252C4676
:10ADB000294601A8FCF717FE18B106EB440301343D
:10ADC0009D800135142DF3D13046346002B070BD42
:10ADD0002DE9F04703888488103B8CB005460A2B88
:10ADE0001FD8DFE803F0063F1E1E1E1E1E1E1E603B
:10ADF0004400314EB368DB43009371686846FCF74A
:10AE00001EFE009901A8FFF7CCFF0DF108094FF0D5
:10AE10000008019B984507D3132C13D90420FCF795
:10AE2000A1F80CB0BDE8F08739F802AB0027013774
:10AE3000514606EB8700FCF7CCFD1E2FF7D108F139
:10AE40000108E6E71D482146FCF7BAFD1C482146EB
:10AE5000FCF7B6FDEB7B022BE3D11A482146FCF749
:10AE6000AFFDDEE715482146FCF7B3FDD9E7027ACE
:10AE700015483F2A4FEA1215214694BF00220122AD
:10AE8000FFF78AFF022D94BF002201220F482146BE
:10AE9000FFF782FF012D0E4894BF002201222146B8
:10AEA000FFF77AFFBDE7037A002BBAD1427A064852
:10AEB000C2F3C0022146F3E7C83D0020D03D002088
:10AEC000CC3D0020D43D0020E03D0020DC3D0020B2
:10AED000D83D00201328014602D80248FCF783BD64
:10AEE00000207047CC3D002010B50446FFF7F2FF6C
:10AEF000002814BF2046142010BD70B50546164624
:10AF000008460AB90E2070BD00231360002DF9D049
:10AF10002B68002BF6D0EB8813F003040ED1FFF75B
:10AF2000E3FFC0B214280BD02B7983420AD9EB88F7
:10AF30002A6800FB032030602046E4E70720E2E7B0
:10AF40000520E0E70420DEE7AADF70470023013890
:10AF50000B70042806D8DFE800F00306080A0C008E
:10AF600011230B7070472123FBE73123F9E71223EC
:10AF7000F7E72223F5E7007800F001007047F0B50D
:10AF80008B7891B0012B0C4638BF01238DF80E3021
:10AF900005460B88ADF80C300021164668460322A2
:10AFA00000F008FF607C6946FFF7D0FFA07C0DF140
:10AFB0000101FFF7CBFFE27B237B217D43EAC20344
:10AFC000227C43EA02139DF80220002922F0190294
:10AFD00003F0190314BF02210121134361F342035B
:10AFE0001C22002109A88DF8023000F0E3FE637BEB
:10AFF00013F0300F15D002AF03220021384600F0C5
:10B00000D9FEE07C0DF10901FFF7A0FF11238DF8B7
:10B0100008309DF80A300E97012262F342038DF842
:10B020000A30637B8DF824301422A37B8DF8253001
:10B03000002104A800F0BEFE03AB0493A388ADF882
:10B040001C30A368CDF814D01BB1E288ADF81820ED
:10B050000893A369002B31D001AF032200213846A9
:10B0600000F0A8FEA3691A88ADF82C205A88ADF824
:10B070002E205A680D97187B0A923946FFF766FF13
:10B08000A3690DF10501587BFFF760FFA269917A72
:10B09000137A43EAC103D17A927B43EA01139DF804
:10B0A0000610002A03F0190321F0190114BF02222F
:10B0B00001220B4362F342038DF80630E36903B1CA
:10B0C0000C93334604AA09A92846FFF73DFF11B0A7
:10B0D000F0BD90DF7047A5DF7047B5DF7047000017
:10B0E0007FB50023ADF80810ADF80A106A4602A932
:10B0F000064603930093ADF80430FFF7EAFF0546D8
:10B1000000B3124B124CE41AE408FDF743F8240490
:10B1100044F0010403460F4932462046FBF755FC34
:10B12000BDF80020BDF8023052EA030103D00A49FD
:10B130002046FBF74AFCBDF804201AB10749204617
:10B14000FBF73AFC284604B070BD00BF9CC5020066
:10B15000ECC5020040CE02008ACE0200C9CE020039
:10B1600080B14FF0F7130360FB230371F723C38013
:10B170001723038141F6FB32002301614381828161
:10B18000184670470E20704730B1A1F11703E02B2D
:10B1900004D80180002070470E20704707207047B8
:10B1A00013B5034680880C46B8B91A88242A00F0E3
:10B1B000968014D8112A71D0232A00F09E80102A7C
:10B1C0003BD0A37A4BB1E1880020FFF784FF002831
:10B1D00040F099804FF48073638102B010BD3A2A29
:10B1E00065D0552AEDD1DB88C988A072172B38BFEE
:10B1F00017238B4228BF0B462381FFF76EFF60B1F8
:10B20000FCF7C8FF484B4949024649481B1ADB086E
:10B210001B0443F00100FBF7CFFBE37A002BD0D1F6
:10B220002369002BCDD040F6772200922289ADF819
:10B230000420694620469847C3E7DB7B0A790A73F6
:10B24000012B13D0022B14D0E18823898B4205D225
:10B250000020FFF740FF70B90123E372217B637B7D
:10B260008B42AED20020FFF73BFFAAE70B88E380BA
:10B27000EAE74B88FBE7112802D10123A372EDE72F
:10B28000FCF788FF284B2B49024629481B1ADB088C
:10B290001B0443F00100FBF78FFBDFE7F723CB80B4
:10B2A00017230B8141F6FB3348818B8189E75B894A
:10B2B000CA88934228BF1346172B0A6938BF172341
:10B2C0000B814AB1C97A39B140F677210091ADF8C6
:10B2D00004306946204690470023638171E71A7A5B
:10B2E0000B694A73002B3FF46CAF4DF67A218DF851
:10B2F000050000918DF804209BE7197A237B994281
:10B3000028BF1946AFE711283FF467AFFCF742FFAB
:10B31000054B0849024606481B1ADB081B0443F08C
:10B320000100FBF749FB58E7ECC5020050CF0200D3
:10B330009CC502001FCF0200B0DF704766DF704778
:10B3400010B5002104464088FFF7F8FF034608B90E
:10B35000237210BD112801D10123F9E76368BDE80C
:10B360001040184760B159B10378DE2B0AD00B6842
:10B370004360DE2303704FF6FF7343800020704765
:10B380000E2070470820704728B10378DE2B04D1C7
:10B390004180002070470E20704708207047F0B5AC
:10B3A000054685B00C46F1B1E8B10B78DE2B1AD119
:10B3B00082884B889A4204D10B7A13B10846FFF772
:10B3C000BFFF2B88112B32D0512B0ED0012B0AD16D
:10B3D0002B7A012B07D1A9886288914203D123726D
:10B3E0002046FFF7ADFF05B0F0BDAE886388B342DD
:10B3F000F9D1AF79022FF6D1AD7B2B1F022BF2D8FA
:10B4000000211022684600F0D5FC052D14BF4FF432
:10B41000C0730023694630468DF80070ADF80430E3
:10B42000FFF78AFF0028DED063689847DBE7638870
:10B43000AA889A4204BF4FF6FF736380D3E7A8DF60
:10B440007047ADDF7047AEDF704762DF704770B5A1
:10B4500005468AB00C46002962D0002860D00388D7
:10B46000502B37D0572B72D0102B59D1818860695F
:10B47000002601AA0196FFF740FD082231460DEB98
:10B48000020000F097FC02232189A888CDF80CD097
:10B4900002AA0293FFF7D5FF002841D1A369002B30
:10B4A0003ED00398FFF767FD002839D0019B0BB110
:10B4B00001221A701822002104A800F07BFC02234C
:10B4C0008DF81030AB88ADF81830019B05940793C8
:10B4D000A36923E08188606902AAFFF70EFD1822A4
:10B4E000002104A800F066FCAB882189ADF8183073
:10B4F000EB88029A05949942079218D12E8A022E5F
:10B5000015D16AB105F11200FFF735FD029B48B174
:10B5100001221A708DF81060A3690BB104A8984736
:10B520000AB070BD187003238DF81030F4E7A289BB
:10B530009A42F5D1A369002BF2D000228DF8102099
:10B5400005F1120208922A8AADF82420E6E78188E4
:10B55000606902AAFFF7D1FC01460028E0D1029BF6
:10B560001B78002BDCD0A369002BD9D0182204A8AB
:10B5700000F020FC01238DF81030AB88ADF81830B6
:10B580000594029BA3E70000F0B53A4B8FB002ADE3
:10B5900004460A4603F1100C2F46186859682E46D7
:10B5A00003C6083363453546F7D1002C5FD0002A27
:10B5B0005DD01368A36121463846FFF746FF002897
:10B5C00053D12246012512F8023B8DF8063001A91D
:10B5D0002846ADF80450FFF732FF002845D1014658
:10B5E000202206A800F0E6FB22460223ADF8183020
:10B5F00012F80C3B8DF81A30BDF824301E4E6088CE
:10B60000079623F44F6323F00F0343F440632B4367
:10B6100006A9ADF824308DF829508DF82A50FFF78F
:10B62000AEFC10BB0146202206A800F0C3FB224658
:10B630000323ADF8183012F8043B8DF81A30BDF82A
:10B6400024306088079623F4875323F01F0343F4C4
:10B6500080532B43ADF8243006A940F201138DF836
:10B660002950ADF82A30FFF78AFC0FB0F0BD0E204C
:10B67000FBE700BF94CF0200F4000100F0B50F46D5
:10B6800087B016461C46054618B3406901AA1946FC
:10B69000FFF733FCD8B94FF6FF739C421BD0019BD8
:10B6A000CBB11B78CBB13388F42B18D801461022CC
:10B6B00002A800F07FFBAB88ADF8083002A9012397
:10B6C0002046CDE904678DF80A30FFF7BCFE07B0CD
:10B6D000F0BD0E20FBE70520F9E70820F7E707207B
:10B6E000F5E710DF7047000013B5044609496846C6
:10B6F000FCF7F5FC019808B902B010BDD0E90021B3
:10B700002046904718B16846FCF7F3FCF2E7112099
:10B71000F2E700BFB0CF020013B504460749684600
:10B72000FCF7DDFC019B0BB902B010BD2046D3E94C
:10B73000002190476846FCF7DCFCF3E7C8CF020025
:10B740000B4991F816335A09EC231341DB0706D550
:10B75000084B9A683AB94FF480030B60704742F285
:10B760000200FBF7FFBB1A6842F480021A607047C0
:10B7700000E100E008320020F7B5194F3C7864BBC7
:10B78000184E012520463570FFF7AEFF112821D055
:10B790002046FFF7C1FF144B8DF803401868019055
:10B7A0000DF10300FBF70CFF104901A8FFF799FF0B
:10B7B0000446B0FA80F0400938709DF80300FBF7AA
:10B7C00023FF3CB90A4B34701C70FFF7B9FF2846C1
:10B7D000FFF7A2FF204603B0F0BD0824FAE700BF40
:10B7E000453E0020443E0020ACCF0200816F0200A5
:10B7F000463E0020014B1878704700BF453E0020B0
:10B8000007B508496846FCF76AFC019B13B903B009
:10B810005DF804FBD3E9002090476846FCF769FC1B
:10B82000F3E700BFBCCF0200FFF7EABF60DF70475D
:10B8300069DF704761DF704730B5114DADF5017DAF
:10B840004FF4FA740DF1020103A8ADF80240FFF7BE
:10B85000F1FF70B9294601A8FCF741FC029B002BBF
:10B86000F0D003A8D3E90021904701A8FCF741FCE0
:10B87000F4E7052801D0FBF775FB0DF5017D30BD20
:10B8800050D20200024B1B780BB1FFF7D5BF7047B7
:10B89000473E002030B5054685B00C46002900F033
:10B8A000B5805B4B0B600C22002101A800F082FAEE
:10B8B00001238DF8063022688DF80450062301A973
:10B8C0002020ADF80830FFF7B3FF60B1FCF762FC51
:10B8D000504B5149024651481B1ADB081B0443F0E8
:10B8E0000100FBF769F80C22002101A800F062FAC0
:10B8F00001238DF805302268002301A94020ADF80E
:10B900000630FFF795FF60B1FCF744FC414B44491A
:10B91000024642481B1ADB081B0443F00100FBF7F8
:10B920004BF80C22002101A800F044FAF72322680A
:10B930008DF8045001A92320ADF80630FFF778FFF9
:10B9400060B1FCF727FC334B3649024633481B1ADB
:10B95000DB081B0443F00100FBF72EF80C2200214A
:10B9600001A800F027FA012022688DF8040001A93F
:10B97000FFF75EFF60B1FCF70DFC264B2A4902463B
:10B9800026481B1ADB081B0443F00100FBF714F8E0
:10B990000C22002101A800F00DFA4FF4B0632268D8
:10B9A000019301A9A120FFF743FF60B1FCF7F2FB6F
:10B9B000184B1E49024619481B1ADB081B0443F0AA
:10B9C0000100FAF7F9FF0C22002101A800F0F2F9BA
:10B9D0009DF8043022686FF3000301A9A0208DF8C0
:10B9E0000430FFF725FF034668B1FCF7D3FB094B92
:10B9F0000F49024609481B1ADB081B0443F00100EB
:10BA0000FAF7DAFF0023184605B030BD0E23FAE737
:10BA1000D82A0020FCC50200D4CF02009CC5020039
:10BA20001AD0020066D00200ADD00200F9D00200A8
:10BA30004AD1020073B505460668FFF7F7FE2B688A
:10BA4000B34204461DD91A481A4B1B491B1ADB087E
:10BA50001B0443F002000190FAF7AAFF2B68174974
:10BA600001983246FAF7B1FF4FF080532A68D3F8B5
:10BA70000C31134901989B0203F100539A1AFAF70B
:10BA80009BFF2CB90F4B01221A70204602B070BDEB
:10BA90002046FCF77FFB074B0B49024604481B1A64
:10BAA000DB081B0443F00100FAF786FFEDE700BF57
:10BAB0009CC50200FCC502009DD10200CCD1020051
:10BAC000FDD10200473E002027D202004BDF704725
:10BAD0001FB50D4C01A8FFF7F9FF70B9214602A868
